{
  "contractName": "Doctor",
  "abi": [
    {
      "constant": true,
      "inputs": [],
      "name": "qualification",
      "outputs": [
        {
          "name": "",
          "type": "string"
        }
      ],
      "payable": false,
      "stateMutability": "view",
      "type": "function"
    },
    {
      "constant": true,
      "inputs": [],
      "name": "manager",
      "outputs": [
        {
          "name": "",
          "type": "address"
        }
      ],
      "payable": false,
      "stateMutability": "view",
      "type": "function"
    },
    {
      "constant": true,
      "inputs": [],
      "name": "doctorName",
      "outputs": [
        {
          "name": "",
          "type": "string"
        }
      ],
      "payable": false,
      "stateMutability": "view",
      "type": "function"
    },
    {
      "constant": true,
      "inputs": [],
      "name": "gender",
      "outputs": [
        {
          "name": "",
          "type": "string"
        }
      ],
      "payable": false,
      "stateMutability": "view",
      "type": "function"
    },
    {
      "constant": true,
      "inputs": [],
      "name": "doctorId",
      "outputs": [
        {
          "name": "",
          "type": "uint256"
        }
      ],
      "payable": false,
      "stateMutability": "view",
      "type": "function"
    },
    {
      "inputs": [
        {
          "name": "_doctorId",
          "type": "uint256"
        },
        {
          "name": "_doctorName",
          "type": "string"
        },
        {
          "name": "_gender",
          "type": "string"
        },
        {
          "name": "_qualification",
          "type": "string"
        },
        {
          "name": "_account",
          "type": "address"
        }
      ],
      "payable": false,
      "stateMutability": "nonpayable",
      "type": "constructor"
    },
    {
      "constant": true,
      "inputs": [],
      "name": "getManager",
      "outputs": [
        {
          "name": "",
          "type": "address"
        }
      ],
      "payable": false,
      "stateMutability": "view",
      "type": "function"
    },
    {
      "constant": true,
      "inputs": [],
      "name": "getPatientName",
      "outputs": [
        {
          "name": "",
          "type": "string"
        }
      ],
      "payable": false,
      "stateMutability": "view",
      "type": "function"
    }
  ],
  "bytecode": "0x608060405234801561001057600080fd5b50604051610848380380610848833981018060405281019080805190602001909291908051820192919060200180518201929190602001805182019291906020018051906020019092919050505083600090805190602001906100749291906100f5565b50826002908051906020019061008b9291906100f5565b5081600390805190602001906100a29291906100f5565b5080600460006101000a81548173ffffffffffffffffffffffffffffffffffffffff021916908373ffffffffffffffffffffffffffffffffffffffff16021790555084600181905550505050505061019a565b828054600181600116156101000203166002900490600052602060002090601f016020900481019282601f1061013657805160ff1916838001178555610164565b82800160010185558215610164579182015b82811115610163578251825591602001919060010190610148565b5b5090506101719190610175565b5090565b61019791905b8082111561019357600081600090555060010161017b565b5090565b90565b61069f806101a96000396000f300608060405260043610610083576000357c0100000000000000000000000000000000000000000000000000000000900463ffffffff1680633b2c22b014610088578063481c6a7514610118578063767027231461016f57806379caad86146101ff578063870be7dd1461028f578063d50095841461031f578063d850a87114610376575b600080fd5b34801561009457600080fd5b5061009d6103a1565b6040518080602001828103825283818151815260200191508051906020019080838360005b838110156100dd5780820151818401526020810190506100c2565b50505050905090810190601f16801561010a5780820380516001836020036101000a031916815260200191505b509250505060405180910390f35b34801561012457600080fd5b5061012d61043f565b604051808273ffffffffffffffffffffffffffffffffffffffff1673ffffffffffffffffffffffffffffffffffffffff16815260200191505060405180910390f35b34801561017b57600080fd5b50610184610465565b6040518080602001828103825283818151815260200191508051906020019080838360005b838110156101c45780820151818401526020810190506101a9565b50505050905090810190601f1680156101f15780820380516001836020036101000a031916815260200191505b509250505060405180910390f35b34801561020b57600080fd5b50610214610503565b6040518080602001828103825283818151815260200191508051906020019080838360005b83811015610254578082015181840152602081019050610239565b50505050905090810190601f1680156102815780820380516001836020036101000a031916815260200191505b509250505060405180910390f35b34801561029b57600080fd5b506102a46105a1565b6040518080602001828103825283818151815260200191508051906020019080838360005b838110156102e45780820151818401526020810190506102c9565b50505050905090810190601f1680156103115780820380516001836020036101000a031916815260200191505b509250505060405180910390f35b34801561032b57600080fd5b50610334610643565b604051808273ffffffffffffffffffffffffffffffffffffffff1673ffffffffffffffffffffffffffffffffffffffff16815260200191505060405180910390f35b34801561038257600080fd5b5061038b61066d565b6040518082815260200191505060405180910390f35b60038054600181600116156101000203166002900480601f0160208091040260200160405190810160405280929190818152602001828054600181600116156101000203166002900480156104375780601f1061040c57610100808354040283529160200191610437565b820191906000526020600020905b81548152906001019060200180831161041a57829003601f168201915b505050505081565b600460009054906101000a900473ffffffffffffffffffffffffffffffffffffffff1681565b60008054600181600116156101000203166002900480601f0160208091040260200160405190810160405280929190818152602001828054600181600116156101000203166002900480156104fb5780601f106104d0576101008083540402835291602001916104fb565b820191906000526020600020905b8154815290600101906020018083116104de57829003601f168201915b505050505081565b60028054600181600116156101000203166002900480601f0160208091040260200160405190810160405280929190818152602001828054600181600116156101000203166002900480156105995780601f1061056e57610100808354040283529160200191610599565b820191906000526020600020905b81548152906001019060200180831161057c57829003601f168201915b505050505081565b606060008054600181600116156101000203166002900480601f0160208091040260200160405190810160405280929190818152602001828054600181600116156101000203166002900480156106395780601f1061060e57610100808354040283529160200191610639565b820191906000526020600020905b81548152906001019060200180831161061c57829003601f168201915b5050505050905090565b6000600460009054906101000a900473ffffffffffffffffffffffffffffffffffffffff16905090565b600154815600a165627a7a723058205c7c4f03f0e7b36f6660b6a9c149d52649bf4cc2c42c9e3a9489e529e7fcf6630029",
  "source": "pragma solidity ^0.4.24;\n\n/*\ncontract DoctorFactory{\n        mapping (address=>address) public accountToAddress;\n        mapping (uint => address)  public doctorIdToAddress;\n        mapping(uint=>bool) public checkDoctorId;\n        uint[] public doctorId;\n        address public manager;\n        constructor(){\n            manager = msg.sender;\n        }\n    function addDoctor(uint _doctorId , string _doctorName , string _gender , string _qualification , address _account) public {\n           require(!checkDoctorId[_doctorId]);\n        address newDoctor = new Doctor(_doctorId , _doctorName , _gender , _qualification , _account);\n        accountToAddress[_account] = newDoctor;\n        doctorIdToAddress[_doctorId] = newDoctor;\n        doctorId.push(_doctorId);\n        checkDoctorId[_doctorId]=true;\n\n    }\n    function getAddress(uint _doctorId) public returns(address){\n        return(doctorIdToAddress[_doctorId]);\n    }\n\n    function getDoctorList() public view returns(uint){\n        return(doctorId.length);\n    }\n\n} */\n\n\ncontract Doctor{\n\n    string public doctorName;\n    uint public doctorId;\n    string public gender;\n    string public qualification;\n    address public manager;\n    constructor( uint _doctorId  , string _doctorName, string _gender, string _qualification, address _account){\n        doctorName = _doctorName;\n        gender = _gender;\n        qualification = _qualification;\n        manager = _account;\n        doctorId = _doctorId;\n\n    }\n\n    function getManager() public view returns(address){\n        return (manager);\n    }\n\n\n      function getPatientName() public view returns(string){\n          return(doctorName);\n      }\n\n}\n",
  "sourcePath": "/home/yasir/Desktop/health-care/contracts/Doctor.sol",
  "compiler": {
    "name": "solc",
    "version": "0.4.24+commit.e67f0147.Emscripten.clang"
  },
  "schemaVersion": "2.0.1",
  "updatedAt": "2018-12-24T09:45:10.008Z"
}