{
  "contractName": "Patient",
  "abi": [
    {
      "constant": true,
      "inputs": [
        {
          "name": "",
          "type": "uint256"
        }
      ],
      "name": "appointments",
      "outputs": [
        {
          "name": "appointmentId",
          "type": "uint256"
        },
        {
          "name": "patientId",
          "type": "uint256"
        },
        {
          "name": "doctorId",
          "type": "uint256"
        },
        {
          "name": "date",
          "type": "string"
        },
        {
          "name": "chiefComplaint",
          "type": "string"
        },
        {
          "name": "hash",
          "type": "string"
        },
        {
          "name": "completed",
          "type": "bool"
        }
      ],
      "payable": false,
      "stateMutability": "view",
      "type": "function"
    },
    {
      "constant": true,
      "inputs": [],
      "name": "age",
      "outputs": [
        {
          "name": "",
          "type": "uint256"
        }
      ],
      "payable": false,
      "stateMutability": "view",
      "type": "function"
    },
    {
      "constant": true,
      "inputs": [],
      "name": "manager",
      "outputs": [
        {
          "name": "",
          "type": "address"
        }
      ],
      "payable": false,
      "stateMutability": "view",
      "type": "function"
    },
    {
      "constant": true,
      "inputs": [],
      "name": "gender",
      "outputs": [
        {
          "name": "",
          "type": "string"
        }
      ],
      "payable": false,
      "stateMutability": "view",
      "type": "function"
    },
    {
      "constant": true,
      "inputs": [],
      "name": "patientName",
      "outputs": [
        {
          "name": "",
          "type": "string"
        }
      ],
      "payable": false,
      "stateMutability": "view",
      "type": "function"
    },
    {
      "constant": true,
      "inputs": [
        {
          "name": "",
          "type": "uint256"
        }
      ],
      "name": "appointmentsList",
      "outputs": [
        {
          "name": "",
          "type": "uint256"
        }
      ],
      "payable": false,
      "stateMutability": "view",
      "type": "function"
    },
    {
      "constant": true,
      "inputs": [],
      "name": "patientId",
      "outputs": [
        {
          "name": "",
          "type": "uint256"
        }
      ],
      "payable": false,
      "stateMutability": "view",
      "type": "function"
    },
    {
      "inputs": [
        {
          "name": "_PatientId",
          "type": "uint256"
        },
        {
          "name": "_patientName",
          "type": "string"
        },
        {
          "name": "_gender",
          "type": "string"
        },
        {
          "name": "_age",
          "type": "uint256"
        },
        {
          "name": "_account",
          "type": "address"
        }
      ],
      "payable": false,
      "stateMutability": "nonpayable",
      "type": "constructor"
    },
    {
      "constant": true,
      "inputs": [],
      "name": "getManager",
      "outputs": [
        {
          "name": "",
          "type": "address"
        }
      ],
      "payable": false,
      "stateMutability": "view",
      "type": "function"
    },
    {
      "constant": true,
      "inputs": [],
      "name": "getPatientName",
      "outputs": [
        {
          "name": "",
          "type": "string"
        }
      ],
      "payable": false,
      "stateMutability": "view",
      "type": "function"
    },
    {
      "constant": false,
      "inputs": [
        {
          "name": "_AppointmentId",
          "type": "uint256"
        },
        {
          "name": "_PatientId",
          "type": "uint256"
        },
        {
          "name": "_DoctorId",
          "type": "uint256"
        },
        {
          "name": "_Date",
          "type": "string"
        },
        {
          "name": "_chiefComplaint",
          "type": "string"
        }
      ],
      "name": "addAppointment",
      "outputs": [],
      "payable": false,
      "stateMutability": "nonpayable",
      "type": "function"
    },
    {
      "constant": true,
      "inputs": [
        {
          "name": "_PatientId",
          "type": "uint256"
        }
      ],
      "name": "getSummary",
      "outputs": [
        {
          "name": "",
          "type": "uint256"
        },
        {
          "name": "",
          "type": "string"
        },
        {
          "name": "",
          "type": "string"
        },
        {
          "name": "",
          "type": "uint256"
        },
        {
          "name": "",
          "type": "address"
        }
      ],
      "payable": false,
      "stateMutability": "view",
      "type": "function"
    },
    {
      "constant": false,
      "inputs": [
        {
          "name": "appointmentId",
          "type": "uint256"
        },
        {
          "name": "prescription",
          "type": "string"
        }
      ],
      "name": "addPrescription",
      "outputs": [
        {
          "name": "",
          "type": "uint256"
        }
      ],
      "payable": false,
      "stateMutability": "nonpayable",
      "type": "function"
    },
    {
      "constant": true,
      "inputs": [],
      "name": "getAppointmentList",
      "outputs": [
        {
          "name": "",
          "type": "uint256"
        }
      ],
      "payable": false,
      "stateMutability": "view",
      "type": "function"
    }
  ],
  "bytecode": "0x60806040523480156200001157600080fd5b5060405162001300380380620013008339810180604052810190808051906020019092919080518201929190602001805182019291906020018051906020019092919080519060200190929190505050836001908051906020019062000079929190620000ed565b50826003908051906020019062000092929190620000ed565b508160048190555080600560006101000a81548173ffffffffffffffffffffffffffffffffffffffff021916908373ffffffffffffffffffffffffffffffffffffffff1602179055508460028190555050505050506200019c565b828054600181600116156101000203166002900490600052602060002090601f016020900481019282601f106200013057805160ff191683800117855562000161565b8280016001018555821562000161579182015b828111156200016057825182559160200191906001019062000143565b5b50905062000170919062000174565b5090565b6200019991905b80821115620001955760008160009055506001016200017b565b5090565b90565b61115480620001ac6000396000f3006080604052600436106100c5576000357c0100000000000000000000000000000000000000000000000000000000900463ffffffff16806312dc9013146100ca578063262a9dff14610268578063466c6db714610293578063481c6a751461036057806379caad86146103b7578063870be7dd14610447578063975a430f146104d757806398f6f0e114610502578063aee1446014610592578063c33465fa146106e5578063d500958414610726578063e07f44441461077d578063e571fd2d146107a8575b600080fd5b3480156100d657600080fd5b506100f56004803603810190808035906020019092919050505061082f565b6040518088815260200187815260200186815260200180602001806020018060200185151515158152602001848103845288818151815260200191508051906020019080838360005b8381101561015957808201518184015260208101905061013e565b50505050905090810190601f1680156101865780820380516001836020036101000a031916815260200191505b50848103835287818151815260200191508051906020019080838360005b838110156101bf5780820151818401526020810190506101a4565b50505050905090810190601f1680156101ec5780820380516001836020036101000a031916815260200191505b50848103825286818151815260200191508051906020019080838360005b8381101561022557808201518184015260208101905061020a565b50505050905090810190601f1680156102525780820380516001836020036101000a031916815260200191505b509a505050505050505050505060405180910390f35b34801561027457600080fd5b5061027d610a46565b6040518082815260200191505060405180910390f35b34801561029f57600080fd5b5061035e600480360381019080803590602001909291908035906020019092919080359060200190929190803590602001908201803590602001908080601f0160208091040260200160405190810160405280939291908181526020018383808284378201915050505050509192919290803590602001908201803590602001908080601f0160208091040260200160405190810160405280939291908181526020018383808284378201915050505050509192919290505050610a4c565b005b34801561036c57600080fd5b50610375610b7d565b604051808273ffffffffffffffffffffffffffffffffffffffff1673ffffffffffffffffffffffffffffffffffffffff16815260200191505060405180910390f35b3480156103c357600080fd5b506103cc610ba3565b6040518080602001828103825283818151815260200191508051906020019080838360005b8381101561040c5780820151818401526020810190506103f1565b50505050905090810190601f1680156104395780820380516001836020036101000a031916815260200191505b509250505060405180910390f35b34801561045357600080fd5b5061045c610c41565b6040518080602001828103825283818151815260200191508051906020019080838360005b8381101561049c578082015181840152602081019050610481565b50505050905090810190601f1680156104c95780820380516001836020036101000a031916815260200191505b509250505060405180910390f35b3480156104e357600080fd5b506104ec610ce3565b6040518082815260200191505060405180910390f35b34801561050e57600080fd5b50610517610cf0565b6040518080602001828103825283818151815260200191508051906020019080838360005b8381101561055757808201518184015260208101905061053c565b50505050905090810190601f1680156105845780820380516001836020036101000a031916815260200191505b509250505060405180910390f35b34801561059e57600080fd5b506105bd60048036038101908080359060200190929190505050610d8e565b6040518086815260200180602001806020018581526020018473ffffffffffffffffffffffffffffffffffffffff1673ffffffffffffffffffffffffffffffffffffffff168152602001838103835287818151815260200191508051906020019080838360005b8381101561063f578082015181840152602081019050610624565b50505050905090810190601f16801561066c5780820380516001836020036101000a031916815260200191505b50838103825286818151815260200191508051906020019080838360005b838110156106a557808201518184015260208101905061068a565b50505050905090810190601f1680156106d25780820380516001836020036101000a031916815260200191505b5097505050505050505060405180910390f35b3480156106f157600080fd5b5061071060048036038101908080359060200190929190505050610f0e565b6040518082815260200191505060405180910390f35b34801561073257600080fd5b5061073b610f31565b604051808273ffffffffffffffffffffffffffffffffffffffff1673ffffffffffffffffffffffffffffffffffffffff16815260200191505060405180910390f35b34801561078957600080fd5b50610792610f5b565b6040518082815260200191505060405180910390f35b3480156107b457600080fd5b5061081960048036038101908080359060200190929190803590602001908201803590602001908080601f0160208091040260200160405190810160405280939291908181526020018383808284378201915050505050509192919290505050610f61565b6040518082815260200191505060405180910390f35b6007602052806000526040600020600091509050806000015490806001015490806002015490806003018054600181600116156101000203166002900480601f0160208091040260200160405190810160405280929190818152602001828054600181600116156101000203166002900480156108ed5780601f106108c2576101008083540402835291602001916108ed565b820191906000526020600020905b8154815290600101906020018083116108d057829003601f168201915b505050505090806004018054600181600116156101000203166002900480601f01602080910402602001604051908101604052809291908181526020018280546001816001161561010002031660029004801561098b5780601f106109605761010080835404028352916020019161098b565b820191906000526020600020905b81548152906001019060200180831161096e57829003601f168201915b505050505090806005018054600181600116156101000203166002900480601f016020809104026020016040519081016040528092919081815260200182805460018160011615610100020316600290048015610a295780601f106109fe57610100808354040283529160200191610a29565b820191906000526020600020905b815481529060010190602001808311610a0c57829003601f168201915b5050505050908060060160009054906101000a900460ff16905087565b60045481565b610a54610fc3565b60e0604051908101604052808781526020018681526020018581526020018481526020018381526020016020604051908101604052806000815250815260200160001515815250905080600760008881526020019081526020016000206000820151816000015560208201518160010155604082015181600201556060820151816003019080519060200190610aeb929190611003565b506080820151816004019080519060200190610b08929190611003565b5060a0820151816005019080519060200190610b25929190611003565b5060c08201518160060160006101000a81548160ff0219169083151502179055509050506006869080600181540180825580915050906001820390600052602060002001600090919290919091505550505050505050565b600560009054906101000a900473ffffffffffffffffffffffffffffffffffffffff1681565b60038054600181600116156101000203166002900480601f016020809104026020016040519081016040528092919081815260200182805460018160011615610100020316600290048015610c395780601f10610c0e57610100808354040283529160200191610c39565b820191906000526020600020905b815481529060010190602001808311610c1c57829003601f168201915b505050505081565b606060018054600181600116156101000203166002900480601f016020809104026020016040519081016040528092919081815260200182805460018160011615610100020316600290048015610cd95780601f10610cae57610100808354040283529160200191610cd9565b820191906000526020600020905b815481529060010190602001808311610cbc57829003601f168201915b5050505050905090565b6000600680549050905090565b60018054600181600116156101000203166002900480601f016020809104026020016040519081016040528092919081815260200182805460018160011615610100020316600290048015610d865780601f10610d5b57610100808354040283529160200191610d86565b820191906000526020600020905b815481529060010190602001808311610d6957829003601f168201915b505050505081565b600060608060008060025460016003600454600560009054906101000a900473ffffffffffffffffffffffffffffffffffffffff16838054600181600116156101000203166002900480601f016020809104026020016040519081016040528092919081815260200182805460018160011615610100020316600290048015610e585780601f10610e2d57610100808354040283529160200191610e58565b820191906000526020600020905b815481529060010190602001808311610e3b57829003601f168201915b50505050509350828054600181600116156101000203166002900480601f016020809104026020016040519081016040528092919081815260200182805460018160011615610100020316600290048015610ef45780601f10610ec957610100808354040283529160200191610ef4565b820191906000526020600020905b815481529060010190602001808311610ed757829003601f168201915b505050505092509450945094509450945091939590929450565b600681815481101515610f1d57fe5b906000526020600020016000915090505481565b6000600560009054906101000a900473ffffffffffffffffffffffffffffffffffffffff16905090565b60025481565b600081600760008581526020019081526020016000206005019080519060200190610f8d929190611083565b5060016007600085815260200190815260200160002060060160006101000a81548160ff02191690831515021790555092915050565b60e0604051908101604052806000815260200160008152602001600081526020016060815260200160608152602001606081526020016000151581525090565b828054600181600116156101000203166002900490600052602060002090601f016020900481019282601f1061104457805160ff1916838001178555611072565b82800160010185558215611072579182015b82811115611071578251825591602001919060010190611056565b5b50905061107f9190611103565b5090565b828054600181600116156101000203166002900490600052602060002090601f016020900481019282601f106110c457805160ff19168380011785556110f2565b828001600101855582156110f2579182015b828111156110f15782518255916020019190600101906110d6565b5b5090506110ff9190611103565b5090565b61112591905b80821115611121576000816000905550600101611109565b5090565b905600a165627a7a7230582057c9ebef26b5d141f23f1f656ec4e6351f93c8fe6095e9dcc22ab908e71d1f750029",
  "source": "pragma solidity ^0.4.24;\nimport \"./Receptionist.sol\";\ncontract Patient{\n\n    ReceptionsitFactory factory;\n    string public patientName;\n    uint public patientId;\n    string public gender;\n    uint public age;\n    address public manager;\n\n    struct Appointment{\n        uint appointmentId;\n        uint patientId;\n        uint doctorId;\n        string date;\n        string chiefComplaint;\n        string hash;\n        bool completed;\n    }\n    uint[] public appointmentsList;\n\n\n    mapping(uint=>Appointment) public appointments;\n\n    constructor( uint _PatientId  , string _patientName, string _gender, uint _age , address _account){\n        patientName = _patientName;\n        gender = _gender;\n        age = _age;\n        manager = _account;\n        patientId = _PatientId;\n\n    }\n\n\n    function getManager() public view returns(address){\n        return (manager);\n    }\n\n\n      function getPatientName() public view returns( string){\n          return(patientName);\n      }\n\n\n      function addAppointment(uint _AppointmentId, uint _PatientId , uint _DoctorId , string _Date , string _chiefComplaint) public{\n          Appointment memory newAppointment = Appointment({\n              appointmentId : _AppointmentId ,\n              patientId : _PatientId ,\n              doctorId : _DoctorId ,\n              date : _Date ,\n              chiefComplaint : _chiefComplaint,\n              hash : '',\n              completed: false\n\n\n          });\n\n          appointments[_AppointmentId]=newAppointment;\n\n          appointmentsList.push(_AppointmentId);\n      }\n\n\n    function getSummary(uint _PatientId) public view returns(uint , string , string , uint , address){\n              return(patientId , patientName , gender , age , manager);\n            }\n\n\n    function addPrescription(uint appointmentId , string prescription) public returns(uint){\n            appointments[appointmentId].hash = prescription;\n            appointments[appointmentId].completed = true;\n\n    }\n\n    function getAppointmentList() public view returns(uint){\n        return appointmentsList.length;\n    }\n}\n",
  "sourcePath": "/home/aman/Downloads/healthcare/contracts/Patient.sol",
  "compiler": {
    "name": "solc",
    "version": "0.4.24+commit.e67f0147.Emscripten.clang"
  },
  "schemaVersion": "2.0.1",
  "updatedAt": "2018-12-28T11:35:04.906Z"
}