{
  "contractName": "Receptionsit",
  "abi": [
    {
      "constant": true,
      "inputs": [],
      "name": "hospitalName",
      "outputs": [
        {
          "name": "",
          "type": "string"
        }
      ],
      "payable": false,
      "stateMutability": "view",
      "type": "function"
    },
    {
      "constant": true,
      "inputs": [],
      "name": "date",
      "outputs": [
        {
          "name": "",
          "type": "uint256"
        }
      ],
      "payable": false,
      "stateMutability": "view",
      "type": "function"
    },
    {
      "constant": true,
      "inputs": [],
      "name": "manager",
      "outputs": [
        {
          "name": "",
          "type": "address"
        }
      ],
      "payable": false,
      "stateMutability": "view",
      "type": "function"
    },
    {
      "constant": true,
      "inputs": [],
      "name": "receptionistName",
      "outputs": [
        {
          "name": "",
          "type": "string"
        }
      ],
      "payable": false,
      "stateMutability": "view",
      "type": "function"
    },
    {
      "constant": true,
      "inputs": [
        {
          "name": "",
          "type": "uint256"
        }
      ],
      "name": "appointements",
      "outputs": [
        {
          "name": "appointementId",
          "type": "uint256"
        },
        {
          "name": "patientId",
          "type": "uint256"
        },
        {
          "name": "doctorId",
          "type": "uint256"
        },
        {
          "name": "date",
          "type": "string"
        },
        {
          "name": "chepComplaint",
          "type": "string"
        }
      ],
      "payable": false,
      "stateMutability": "view",
      "type": "function"
    },
    {
      "inputs": [
        {
          "name": "_hospitalName",
          "type": "string"
        },
        {
          "name": "_receptionistName",
          "type": "string"
        },
        {
          "name": "_manager",
          "type": "address"
        }
      ],
      "payable": false,
      "stateMutability": "nonpayable",
      "type": "constructor"
    },
    {
      "constant": false,
      "inputs": [],
      "name": "getManager",
      "outputs": [
        {
          "name": "",
          "type": "address"
        }
      ],
      "payable": false,
      "stateMutability": "nonpayable",
      "type": "function"
    },
    {
      "constant": true,
      "inputs": [],
      "name": "getSummary",
      "outputs": [
        {
          "name": "",
          "type": "string"
        },
        {
          "name": "",
          "type": "string"
        },
        {
          "name": "",
          "type": "address"
        }
      ],
      "payable": false,
      "stateMutability": "view",
      "type": "function"
    }
  ],
  "bytecode": "0x608060405234801561001057600080fd5b50604051610adf380380610adf83398101806040528101908080518201929190602001805182019291906020018051906020019092919050505082600390805190602001906100609291906100c1565b5081600490805190602001906100779291906100c1565b5080600260006101000a81548173ffffffffffffffffffffffffffffffffffffffff021916908373ffffffffffffffffffffffffffffffffffffffff160217905550505050610166565b828054600181600116156101000203166002900490600052602060002090601f016020900481019282601f1061010257805160ff1916838001178555610130565b82800160010185558215610130579182015b8281111561012f578251825591602001919060010190610114565b5b50905061013d9190610141565b5090565b61016391905b8082111561015f576000816000905550600101610147565b5090565b90565b61096a806101756000396000f300608060405260043610610083576000357c0100000000000000000000000000000000000000000000000000000000900463ffffffff1680631cae99e214610088578063323046b1146101185780634051ddac14610143578063481c6a75146102725780635e7975cb146102c9578063a0a3872c14610359578063d500958414610480575b600080fd5b34801561009457600080fd5b5061009d6104d7565b6040518080602001828103825283818151815260200191508051906020019080838360005b838110156100dd5780820151818401526020810190506100c2565b50505050905090810190601f16801561010a5780820380516001836020036101000a031916815260200191505b509250505060405180910390f35b34801561012457600080fd5b5061012d610575565b6040518082815260200191505060405180910390f35b34801561014f57600080fd5b5061015861057b565b6040518080602001806020018473ffffffffffffffffffffffffffffffffffffffff1673ffffffffffffffffffffffffffffffffffffffff168152602001838103835286818151815260200191508051906020019080838360005b838110156101ce5780820151818401526020810190506101b3565b50505050905090810190601f1680156101fb5780820380516001836020036101000a031916815260200191505b50838103825285818151815260200191508051906020019080838360005b83811015610234578082015181840152602081019050610219565b50505050905090810190601f1680156102615780820380516001836020036101000a031916815260200191505b509550505050505060405180910390f35b34801561027e57600080fd5b506102876106ea565b604051808273ffffffffffffffffffffffffffffffffffffffff1673ffffffffffffffffffffffffffffffffffffffff16815260200191505060405180910390f35b3480156102d557600080fd5b506102de610710565b6040518080602001828103825283818151815260200191508051906020019080838360005b8381101561031e578082015181840152602081019050610303565b50505050905090810190601f16801561034b5780820380516001836020036101000a031916815260200191505b509250505060405180910390f35b34801561036557600080fd5b50610384600480360381019080803590602001909291905050506107ae565b604051808681526020018581526020018481526020018060200180602001838103835285818151815260200191508051906020019080838360005b838110156103da5780820151818401526020810190506103bf565b50505050905090810190601f1680156104075780820380516001836020036101000a031916815260200191505b50838103825284818151815260200191508051906020019080838360005b83811015610440578082015181840152602081019050610425565b50505050905090810190601f16801561046d5780820380516001836020036101000a031916815260200191505b5097505050505050505060405180910390f35b34801561048c57600080fd5b50610495610914565b604051808273ffffffffffffffffffffffffffffffffffffffff1673ffffffffffffffffffffffffffffffffffffffff16815260200191505060405180910390f35b60038054600181600116156101000203166002900480601f01602080910402602001604051908101604052809291908181526020018280546001816001161561010002031660029004801561056d5780601f106105425761010080835404028352916020019161056d565b820191906000526020600020905b81548152906001019060200180831161055057829003601f168201915b505050505081565b60015481565b606080600060036004600260009054906101000a900473ffffffffffffffffffffffffffffffffffffffff16828054600181600116156101000203166002900480601f01602080910402602001604051908101604052809291908181526020018280546001816001161561010002031660029004801561063c5780601f106106115761010080835404028352916020019161063c565b820191906000526020600020905b81548152906001019060200180831161061f57829003601f168201915b50505050509250818054600181600116156101000203166002900480601f0160208091040260200160405190810160405280929190818152602001828054600181600116156101000203166002900480156106d85780601f106106ad576101008083540402835291602001916106d8565b820191906000526020600020905b8154815290600101906020018083116106bb57829003601f168201915b50505050509150925092509250909192565b600260009054906101000a900473ffffffffffffffffffffffffffffffffffffffff1681565b60048054600181600116156101000203166002900480601f0160208091040260200160405190810160405280929190818152602001828054600181600116156101000203166002900480156107a65780601f1061077b576101008083540402835291602001916107a6565b820191906000526020600020905b81548152906001019060200180831161078957829003601f168201915b505050505081565b6000602052806000526040600020600091509050806000015490806001015490806002015490806003018054600181600116156101000203166002900480601f01602080910402602001604051908101604052809291908181526020018280546001816001161561010002031660029004801561086c5780601f106108415761010080835404028352916020019161086c565b820191906000526020600020905b81548152906001019060200180831161084f57829003601f168201915b505050505090806004018054600181600116156101000203166002900480601f01602080910402602001604051908101604052809291908181526020018280546001816001161561010002031660029004801561090a5780601f106108df5761010080835404028352916020019161090a565b820191906000526020600020905b8154815290600101906020018083116108ed57829003601f168201915b5050505050905085565b6000600260009054906101000a900473ffffffffffffffffffffffffffffffffffffffff169050905600a165627a7a723058204cb7b31fd79d10103e64d8b453f2ac13b02d1c4f03da4862079b934a71e7eeaf0029",
  "source": "pragma solidity ^0.4.24;\n\n\nimport \"./Doctor.sol\";\nimport \"./Patient.sol\";\ncontract ReceptionsitFactory{\n    struct ReceptionSummary{\n        string hospitalName;\n        string receptionistName;\n        address manager;\n        address contractAddress;\n\n    }\n\n    struct Appointement{\n    uint appointementId;\n    uint patientId;\n    uint doctorId;\n    string date;\n    string chepComplaint;\n  }\n\n\n        mapping(uint => Appointement) public appointements;\n        ReceptionSummary[] public receptionSummary;\n        Patient public patient;\n\n        address[] public deployedReceptionist;\n        mapping (address=>address) public accountToAddress;\n        mapping(address => bool) public accountCheck;\n        address public newReceptionist ;\n        address public manager;\n        //for patient\n        mapping (address=>address) public accountToAddressPatient;\n       mapping (uint => address)  public patientIdToAddress;\n       mapping(uint=>bool) public checkPatientId;\n       uint[] public patientId;\n       address public patientAddress;\n\n       //for Doctor\n\n        mapping (address=>address) public accountToAddressDoctor;\n        mapping (uint => address)  public doctorIdToAddress;\n        mapping(uint=>bool) public checkDoctorId;\n        uint[] public doctorId;\n\n\n   function createReceptionist(string _hospitalName, string _name ) public{\n       require(!(accountCheck[msg.sender]));\n         newReceptionist = new Receptionsit(_hospitalName, _name , msg.sender);\n        deployedReceptionist.push(newReceptionist);\n        accountToAddress[msg.sender] = newReceptionist;\n        accountCheck[msg.sender] = true;\n\n        ReceptionSummary memory newRecetionSummary= ReceptionSummary({\n            hospitalName: _hospitalName ,\n            receptionistName : _name,\n            manager: msg.sender,\n            contractAddress : newReceptionist\n\n        })  ;\n        receptionSummary.push(newRecetionSummary);\n    }\n\n     function getReceptionList() public view returns(uint){\n         return receptionSummary.length;\n     }\n\n    function getDeployedCompaigns() public view returns(address[]){\n        return deployedReceptionist;\n    }\n\n    //For Patient\n\n     function addPatient(uint _patientId, string _patientName, string _gender, uint _age, address _account) public {\n                 require(!checkPatientId[_patientId]);\n\n          patient = new Patient(_patientId , _patientName , _gender , _age , _account);\n          accountToAddressPatient[_account] = patient;\n        patientIdToAddress[_patientId] = patient;\n        patientId.push(_patientId);\n        checkPatientId[_patientId]=true;\n\n    }\n\n    function getPatientList() public view returns(uint){\n      return patientId.length;\n  }\n    //For doctor\n    function addDoctor(uint _doctorId , string _doctorName , string _gender , string _qualification , address _account) public {\n           require(!checkDoctorId[_doctorId]);\n        address newDoctor = new Doctor(_doctorId , _doctorName , _gender , _qualification , _account);\n        accountToAddressDoctor[_account] = newDoctor;\n        doctorIdToAddress[_doctorId] = newDoctor;\n        doctorId.push(_doctorId);\n        checkDoctorId[_doctorId]=true;\n\n    }\n\n    function getDoctorList() public view returns(uint){\n        return(doctorId.length);\n    }\n\n\n  function createAppointment( uint  _AppointementId, uint _PatientId , uint _DoctorId, string _Date , string _chepComplaint ) public  {\n\n    Appointement memory newAppointement = Appointement({\n      appointementId : _AppointementId,\n      patientId : _PatientId,\n      doctorId : _DoctorId,\n      date : _Date,\n      chepComplaint: _chepComplaint\n    });\n    appointements[_AppointementId] = newAppointement;\n    patientAddress= getPatientAddress(_PatientId);\n    Patient patient1 = Patient(patientAddress);\n    patient1.addAppointment(_AppointementId, _PatientId , _DoctorId , _Date, _chepComplaint);\n\n  }\n\n\n  function getPatientAddress( uint patientId)public view returns (address){\n      return(patientIdToAddress[patientId]);\n  }\n\n}\n\ncontract Receptionsit{\n\n     struct Appointement{\n            uint appointementId;\n            uint patientId;\n            uint doctorId;\n            string date;\n            string chepComplaint;\n        }\n\n        mapping(uint => Appointement) public appointements;\n\n    uint public date;\n    address public manager;\n    string public hospitalName;\n    string public receptionistName;\n    Patient patient;\n\n    constructor (string _hospitalName, string _receptionistName , address _manager) public {\n        hospitalName = _hospitalName;\n        receptionistName = _receptionistName;\n        manager = _manager;\n\n    }\n\n    modifier restricted{\n        require(msg.sender == manager);\n        _;\n    }\n\n    function getManager() public returns(address){\n        return(manager);\n    }\n\n    function getSummary()public view returns(string , string , address ){\n        return(hospitalName , receptionistName , manager);\n    }\n\n}\n",
  "sourcePath": "/home/yasir/Desktop/health-care/contracts/Receptionist.sol",
  "compiler": {
    "name": "solc",
    "version": "0.4.24+commit.e67f0147.Emscripten.clang"
  },
  "schemaVersion": "2.0.1",
  "updatedAt": "2018-12-24T09:45:09.578Z"
}